:100000000C9407130C9438130C9438130C94381375
:100010000C9438130C9438130C9438130C94381334
:100020000C9438130C9438130C9438130C94381324
:100030000C9438130C9438130C9438130C94381314
:100040000C9438130C9466230C9438130C943813C6
:100050000C9438130C9438130C94A9220C946683D6
:100060000C9438130C94C9690C94BF690C94381320
:100070000C9438130C9438130C9438130C943813D4
:100080000C9438130C9438130C9438130C943813C4
:100090000C9438130C9438130C9438130C943813B4
:1000A0000C9438130C9438130C9438130C943813A4
:1000B0000C9438130C9438130C9438130C94381394
:1000C0000C9438130C9438130C9438130C94381384
:1000D0000C9438130C9438130C9438130C94381374
:1000E0000C943813084AD73B3BCE016E84BCBFFD4D
:1000F000C12F3D6C74319ABD56833DDA3D00C77FF8
:1001000011BED9E4BB4C3E916BAAAABE0000008090
:100110003F05A84CCDB2D44EB93836A9020C50B91F
:10012000918688083CA6AAAA2ABE000000803F004B
:100130004E414E494E495459494E46CDCCCC3D0ACC
:10014000D7233C17B7D13877CC2B329595E6241FAF
:10015000B14F0A000020410000C84200401C462068
:10016000BCBE4CCA1B0E5AAEC59D7400407A10F33B
:100170005A00A0724E18090010A5D4E80000E876D5
:1001800048170000E40B54020000CA9A3B0000002C
:10019000E1F505000080969800000040420F000045
:1001A00000A08601000000102700000000E8030006
:1001B0000000006400000000000A000000000001D0
:1001C00000000000002C76D888DC674F0823DFC1D0
:1001D000DFAE59E1B1B796E5E3E453C63AE651998B
:1001E0007696E8E6C28426EB898C9B62ED407C6FB4
:1001F000FCEFBC9C9F40F2BAA56FA5F490055A2A6B
:10020000F75C936B6CF9676DC11BFCE0E40D47FE76
:10021000F520E6B500D0ED902E030094357705006B
:1002200080841E080000204E0A000000C80C3333F2
:1002300033330F986E12831141EF8D2114893BE601
:100240005516CFFEE6DB18D1844B381BF77C1D908A
:100250001DA4BBE424203284725E228100C9F124F3
:10026000ECA1E53D2741425300504C410053544F0F
:10027000505045442E20005072696E746572207390
:10028000746F707065642064756520746F2065728A
:10029000726F72732E2046697820746865206572CB
:1002A000726F7220616E6420757365204D39393923
:1002B00020746F20726573746172742E20285465E7
:1002C0006D706572617475726520697320726573F3
:1002D00065742E205365742069742061667465729C
:1002E0002072657374617274696E67290A004E6FBB
:1002F00020436865636B73756D2077697468206C43
:10030000696E65206E756D6265722C204C61737428
:10031000204C696E653A2000636865636B73756D88
:10032000206D69736D617463682C204C6173742057
:100330004C696E653A20004C696E65204E756D62A1
:100340006572206973206E6F74204C617374204C49
:10035000696E65204E756D6265722B312C204C6183
:100360007374204C696E653A20004D313130005372
:10037000657269616C20737461747573206D697343
:100380006D617463680A002121204B494C4C206345
:100390006175736564206279204B494C4C2062750D
:1003A00074746F6E2F70696E0A002121204B494CC6
:1003B0004C2063617573656420627920746F6F20CF
:1003C0006D75636820696E61637469766520746910
:1003D0006D65202D2063757272656E7420636F6D7C
:1003E0006D616E643A2000627573793A20706175B0
:1003F00073656420666F7220696E7075740A00629E
:100400007573793A2070617573656420666F722028
:10041000757365720A00627573793A2070726F6342
:10042000657373696E670A00506C6561736520526D
:1004300065736574005052494E5445522048414CF2
:100440005445440025533A202553004B494C4C4514
:10045000442E20005072696E7465722068616C745D
:1004600065642E206B696C6C28292063616C6C6557
:1004700064210A006563686F3A004572726F723AD0
:100480000020496E76616C696420657874727564C9
:10049000657220004361703A0023646566696E6589
:1004A0002044454641554C545F004B6420004B6945
:1004B00020004B702000504944204175746F7475C2
:1004C0006E652066696E6973686564212050757475
:1004D00020746865206C617374204B702C204B690C
:1004E00020616E64204B6420636F6E7374616E7460
:1004F000732066726F6D2062656C6F7720696E7411
:100500006F20436F6E66696775726174696F6E2ED6
:10051000680A00504944204175746F74756E6520F7
:100520006661696C6564212074696D656F75740A14
:1005300000504944204175746F74756E6520666182
:10054000696C6564212054656D70657261747572A3
:100550006520746F6F20686967680A00204B643AF1
:100560002000204B693A2000204B703A20002043A5
:100570006C617373696320504944200A00205475EC
:100580003A2000204B753A2000206D61783A200017
:10059000206D696E3A200020643A20002062696173
:1005A000733A2000504944204175746F74756E652C
:1005B0002073746172740A00504944204175746F4D
:1005C00074756E65206661696C6564212054656D83
:1005D000706572617475726520746F6F20686967E9
:1005E000680A00504944204175746F74756E652027
:1005F0006661696C6564212042616420686561748C
:1006000065722069640A00504944204175746F7412
:10061000756E6500A10000006900A2000000630083
:10062000B00000000900C10000004100C20000004D
:100630004100C30000004100C40000004100C500AB
:1006400000004100C60000004145C7000000430013
:10065000C80000004500C90000004500CD000000B2
:100660004900D10000004E00D50000004F00D60028
:1006700000004F00D70000007800DC0000005500AB
:10068000DD0000005900E00000006100E100000012
:100690006100E20000006100E30000006100E4008E
:1006A00000006100E50000006100E60000006165F7
:1006B000E70000006300E80000006500E9000000BA
:1006C0006500EA0000006500EB0000006500EC003A
:1006D00000006900ED0000006900EE000000690004
:1006E000EF0000006900F10000006E00F200000061
:1006F0006F00F30000006F00F40000006F00F500D1
:1007000000006F00F60000006F00F80000006F00AE
:10071000F90000007500FA0000007500FB00000001
:100720007500FC0000007500FD0000007900FF006E
:100730000000790004010000410005010000610093
:100740000601000043000701000063000C010000E7
:1007500043000D01000063000E01000044000F0182
:100760000000640011010000640019010000650030
:100770001A01000045001B01000065001F01000078
:1007800067003001000049003101000069004101AB
:1007900000004C00420100006C00430100004E00CC
:1007A000440100006E00480100006E005801000086
:1007B00052005901000072005A01000053005B0111
:1007C000000073005F01000073006001000053002F
:1007D0006101000073006501000074006F010000FA
:1007E00075007C0100007A007D0100005A007E0146
:1007F00000007A00920100006600E3020000780029
:10080000222000002E001E2100005078222100002E
:10081000544D902100003C2D922100002D3EB0212E
:1008200000000300BB21000004003C2200007E0009
:10083000482200007E3D60220000213D6122000030
:100840003D00642200003C3D652200003E3DF12356
:1008500000000700A03000003D0021F3010002006D
:10086000C2F401000500A2000000EC00B00000008E
:10087000DF00E4000000E100F6000000EF00F700F8
:100880000000FD00FC000000F500E3020000EB00AA
:1008900087030000A5008F030000F4009803000008
:1008A000F2009E030000E300A3030000F600A9038A
:1008B0000000F400AC030000E000AD030000E30022
:1008C000B1030000E000B2030000E200B503000045
:1008D000E300B8030000F200BC030000E400BE0324
:1008E0000000E300C0030000F700C1030000E600C1
:1008F000C3030000E500902100007F00922100006A
:100900007E001A220000E8001E220000F300882565
:100910000000FF0002300000A1000C300000A20027
:100920000D300000A3009B300000DE009C30000072
:10093000DF00A03000003D00A1300000A700A23081
:100940000000B100A3300000A800A4300000B200F5
:10095000A5300000A900A6300000B300A7300000B9
:10096000AA00A8300000B400A9300000AB00AA30F3
:100970000000B500AB300000B600AC300000B6DEC1
:10098000AD300000B700AE300000B7DEAF30000081
:10099000B800B0300000B8DEB1300000B900B230AD
:1009A0000000B9DEB3300000BA00B4300000BADE97
:1009B000B5300000BB00B6300000BBDEB730000031
:1009C000BC00B8300000BCDEB9300000BD00BA3059
:1009D0000000BDDEBB300000BE00BC300000BEDE4B
:1009E000BD300000BF00BE300000BFDEBF300000E1
:1009F000C000C0300000C0DEC1300000C100C23005
:100A00000000C1DEC3300000AF00C4300000C200EF
:100A1000C5300000C2DEC6300000C300C730000091
:100A2000C3DEC8300000C400C9300000C4DECA30D4
:100A30000000C500CB300000C600CC300000C7006D
:100A4000CD300000C800CE300000C900CF3000001B
:100A5000CA00D0300000CADED1300000CADFD23078
:100A60000000CB00D3300000CBDED4300000CBDF61
:100A7000D5300000CC00D6300000CCDED7300000EE
:100A8000CCDFD8300000CD00D9300000CDDEDA3028
:100A90000000CDDFDB300000CE00DC300000CEDE19
:100AA000DD300000CEDFDE300000CF00DF300000A0
:100AB000D000E0300000D100E1300000D200E23090
:100AC0000000D300E3300000AC00E4300000D400AC
:100AD000E5300000AD00E6300000D500E730000052
:100AE000AE00E8300000D600E9300000D700EA3060
:100AF0000000D800EB300000D900EC300000DA0034
:100B0000ED300000DB00EF300000DC00F2300000D0
:100B1000A600F3300000DD00F4300000B3DEF73053
:100B20000000DCDEFA300000A6DEFB300000A5008D
:100B3000FC300000B000FD300000A400074E0000B3
:100B4000FB0086510000FC0043530000FA0064FFE4
:100B50000000A40065FF0000A50066FF0000A600DD
:100B600067FF0000A70068FF0000A80069FF000001
:100B7000A9006AFF0000AA006BFF0000AB006CFF39
:100B80000000AC006DFF0000AD006EFF0000AE0085
:100B90006FFF0000AF0070FF0000B00071FF0000A9
:100BA000B10072FF0000B20073FF0000B30074FFD9
:100BB0000000B40075FF0000B50076FF0000B6002D
:100BC00077FF0000B70078FF0000B80079FF000051
:100BD000B9007AFF0000BA007BFF0000BB007CFF79
:100BE0000000BC007DFF0000BD007EFF0000BE00D5
:100BF0007FFF0000BF0080FF0000C00081FF0000F9
:100C0000C10082FF0000C20083FF0000C30084FF18
:100C10000000C40085FF0000C50086FF0000C6007C
:100C200087FF0000C70088FF0000C80089FF0000A0
:100C3000C9008AFF0000CA008BFF0000CB008CFFB8
:100C40000000CC008DFF0000CD008EFF0000CE0024
:100C50008FFF0000CF0090FF0000D00091FF000048
:100C6000D10092FF0000D20093FF0000D30094FF58
:100C70000000D40095FF0000D50096FF0000D600CC
:100C800097FF0000D70098FF0000D80099FF0000F0
:100C9000D9009AFF0000DA009BFF0000DB009CFFF8
:100CA0000000DC009DFF0000DD009EFF0000DE0074
:100CB0009FFF0000DF00E5FF00005C000000000077
:100CC000010204040000001C1C0C040404020100C6
:100CD0000000000004081000000000002D2D2D2D44
:100CE0002D2D007C4D61726C696E7C002D2D2D2D9B
:100CF0002D2D00040E1F041C000000000E13151102
:100D00000E00001C10181705060500040A0A0A0A3E
:100D100011110E0C12120C00000000001F1511150D
:100D20001F000042656400456E636C6F73757265E9
:100D3000002568753A2530326875002530326875AF
:100D40003A25303268750020202020202020002005
:100D50002020200045005A0058590046696C2E207A
:100D60004469612E004520696E206D6D5E33002060
:100D7000022046616374002002204D617800200249
:100D8000204D696E004F6666004F6E004175746FAE
:100D900074656D70005654726176204D696E005610
:100DA0006D696E00566D6178204500566D61782042
:100DB0005A00566D6178205900566D6178205800B0
:100DC000416D6178204500416D6178205A00416D88
:100DD0006178205900416D6178205800412D54728E
:100DE0006176656C00412D526574726163740041D7
:100DF0006363656C00452073746570732F6D6D00BF
:100E00005A2053746570732F6D6D005920537465AB
:100E100070732F6D6D00582053746570732F6D6D56
:100E200000416476616E6365642053657474696E15
:100E30006773004D3432380046696C616D656E74BD
:100E40000054656D706572617475726500447269F5
:100E5000766520537472656E6774680053746570AC
:100E6000732F6D6D004A756E6374696F6E204465F3
:100E70007600416363656C65726174696F6E0056DC
:100E8000656C6F636974790053657420486F6D6594
:100E9000204F66667365747300436F6E666967758D
:100EA000726174696F6E00426564004E6F7A7A6C8D
:100EB000650046616E20537065656400436F6E6621
:100EC000696775726174696F6E00526573746F72D1
:100ED000652044656661756C747300507265686561
:100EE0006174202420436F6E6600416476616E63F6
:100EF00065642053657474696E6773004D61696E33
:100F000000436F6E66696775726174696F6E005435
:100F1000656D7065726174757265004D6F74696F8F
:100F20006E0054756E6500496E666F20536372657E
:100F3000656E002100486F74656E6420746F6F20C9
:100F4000636F6C64004261636B0050726F63656530
:100F500064004D6F74696F6E0044697361626C6503
:100F6000205374657070657273004D38340041759C
:100F7000746F20486F6D6500473238004D61696EAF
:100F800000507265686561742024204265640050D9
:100F9000726568656174202420456E640054656D37
:100FA00070657261747572650069026502436F6FE6
:100FB0006C646F776E005072656865617420240000
:100FC00046616E20537065656400426564004E6F33
:100FD0007A7A6C65004D61696E00466C6F770046E9
:100FE000616E20537065656400426564004E6F7ADF
:100FF0007A6C65005370656564004D61696E006FC1
:1010000070656E00545249474745524544003A20A6
:10101000007A5F6D696E00795F6D696E00785F6D53
:10102000696E005265706F7274696E6720656E64D8
:1010300073746F70207374617475730A00576172F2
:101040006E696E673A20486F6D696E672042756DF4
:10105000702044697669736F72203C20310A000267
:1010600002040000484300004843000048430000D9
:10107000A0400000A04000000040000048430000E5
:10108000484300004843000000000000000000004A
:10109000000000009643000096430000A0400000BE
:1010A000C8410000C8420000C84200007A45004024
:1010B0000344D0070000D00700001E0000001027E6
:1010C00000003B200020204D393037205800537459
:1010D0006570706572206D6F746F722063757272C7
:1010E000656E74733A0020440020490020204D337F
:1010F00030312050005049442073657474696E6724
:10110000733A0020460020420020480020204D3144
:1011100034352053004D6174657269616C206865D7
:101120006174757020706172616D65746572733A77
:101130000020204D323036205800486F6D65206FFA
:1011400066667365743A00204A0020530020204DE3
:10115000323035204200416476616E6365643A2026
:10116000423C6D696E5F7365676D656E745F74692F
:101170006D655F75733E20533C6D696E5F66656596
:1011800064726174653E20543C6D696E5F74726177
:1011900076656C5F66656564726174653E204A3C85
:1011A0006A756E635F6465763E0020520020204DB4
:1011B000323034205000416363656C65726174693C
:1011C0006F6E2028756E6974732F7332293A205020
:1011D0003C7072696E745F616363656C3E20523C63
:1011E000726574726163745F616363656C3E205401
:1011F0003C74726176656C5F616363656C3E002070
:10120000204D3230312058004D6178696D756D2068
:10121000416363656C65726174696F6E2028756ED9
:101220006974732F7332293A0020204D32303320F5
:1012300058004D6178696D756D20666565647261F1
:101240007465732028756E6974732F73293A00537F
:10125000746570732070657220756E69743A002031
:10126000440020204D323030205300204469736107
:10127000626C65640A0046696C616D656E7420730A
:10128000657474696E67733A0020204D31343920DB
:1012900043203B20556E69747320696E2043656C52
:1012A000736975730A0020286D6D2900202047326C
:1012B00031202020203B20556E69747320696E20F8
:1012C0006D6D0024F4D43050C38E20C2A24017822A
:1012D0008B7011127A910D816CD90AA861E108C74F
:1012E000586607615143061E4B5D05C145A7041AA8
:1012F000411104093D9803713931034036DB026521
:10130000339102D4305402802E1D02632CEE0175FD
:101310002AC501B028A001102781018F2564012B67
:10132000244B01E0223401AC211F018D200D0180EE
:101330001FFC00841EED00971DDF00B81CD200E6E4
:101340001BC600201BBC00641AB200B219A8000A18
:1013500019A0006A189900D117910040178B00B5A9
:1013600016840031167E00B31579003A157300C754
:10137000146F0058146A00EE13660088136300258A
:10138000135E00C7125B006C12570015125400C1A7
:1013900011510070114F0021114B00D61049008DE2
:1013A0001047004610440002104200C00F40008069
:1013B0000F3E00420F3C00060F3B00CB0E3800935F
:1013C0000E37005C0E3500270E3400F30D3200C1DD
:1013D0000D3100900D3000600D2E00320D2D0005F6
:1013E0000D2C00D90C2B00AE0C2900850C29005CBB
:1013F0000C2700350C27000E0C2600E80B2400C437
:101400000B2400A00B23007D0B23005A0B21003975
:101410000B2100180B2000F80A1F00D90A1E00BB80
:101420000A1E009D0A1D00800A1D00630A1C004759
:101430000A1B002C0A1B00110A1A00F7091A00DD0A
:10144000091900C4091900AB091900920917007B9A
:10145000091800630917004C091600360916002008
:101460000916000A091500F5081500E0081400CC5B
:10147000081400B8081400A4081400900813007D94
:101480000812006B081300580812004608120034B6
:10149000081100230811001208110001081100F0C2
:1014A000071000E0071000D0071000C0071000B0C0
:1014B000070F00A107100091070E0083070F0074AB
:1014C000070F0065070E0057070E0049070E003B87
:1014D000070D002E070E0020070D0013070D000654
:1014E000070D00F9060C00ED060D00E0060C00D417
:1014F000060C00C8060C00BC060C00B0060C00A4CC
:10150000060B0099060C008D060B0082060B007777
:10151000060B006C060B0061060A0057060B004C18
:10152000060A0042060A0038060A002E060A0024AF
:10153000060A001A060A001006090007060A00FD3E
:10154000050900F4050900EB050900E2050900D9C9
:10155000050900D0050900C7050900BE050900B549
:10156000050800AD050800A50509009C05080094C4
:101570000508008C050800840508007C0508007437
:101580000508006C050700650508005D05070056A5
:101590000508004E0507004705070040050800380C
:1015A000050700310507002A050700230507001C71
:1015B000050600160507000F0507000805060002CE
:1015C000050700FB040600F5040700EE040600E82A
:1015D000040600E2040700DB040600D5040600CF81
:1015E000040600C9040600C3040600BD040600B7D3
:1015F000040600B1040500AC040600A6040600A021
:101600000405009B04060095040500900406008A6A
:1016100004050085040500800406007A04050075B1
:10162000040500700405006B0405006604050061F4
:101630000405005C04050057040500520405004D34
:1016400004050048040500430405003E0404003A74
:1016500004050035040500300404002C04050027AF
:10166000040400230405001E0404001A04040016E8
:10167000040500110404000D04040009040500041D
:1016800004040000040400FC030400F8030400F454
:10169000030400F0030400EC030400E8030400E486
:1016A000030400E0030400DC030400D8030400D4B6
:1016B000030400D0030400CC030400C8030300C5E6
:1016C00003030024F404D9201BC40C5C0E9804C44A
:1016D000095F0265077101F405F900FB04B30048D6
:1016E000048700C10369005803550003034500BE89
:1016F000023A008402310053022A00290225000424
:10170000022000E4011C00C8011900AF0117009875
:1017100001140084011300710110006101100051D7
:10172000010E0043010D0036010B002B010B0020C0
:10173000010B00150109000C01090003010800FB61
:10174000000800F3000800EB000700E4000600DEDC
:10175000000600D8000600D2000600CC000500C735
:10176000000500C2000500BD000400B9000400B57A
:10177000000400B1000400AD000400A9000400A5AD
:10178000000300A20003009F0004009B00030098D8
:101790000003009500020093000300900003008DF9
:1017A0000002008B00030088000200860002008413
:1017B000000300810002007F0002007D0002007B28
:1017C0000002007900020077000100760002007438
:1017D00000020072000100710002006F0002006D43
:1017E0000001006C0002006A00010069000200674D
:1017F0000001006600010065000100640002006253
:1018000000010061000100600001005F0002005D56
:101810000001005C0001005B0001005A000100595A
:10182000000100580001005700010056000100555A
:101830000001005400010053000000530001005259
:1018400000010051000100500001004F0001004E56
:101850000000004E0001004D0001004C0001004B53
:101860000000004B0001004A00010049000100484F
:10187000000000480001004700010046000000464B
:101880000001004500000045000100440001004344
:10189000000000430001004200000042000100413E
:1018A00000000041000100400001003F0000003F37
:1018B0000001003E0000003E0001003D0000003D30
:1018C0000001003C0000003C0000003C0001003B27
:1018D0000000003B0001003A0000003A000100391E
:1018E0000000003900010038000000380000003816
:1018F000000100370000003700010036000000360C
:101900000000003600010035000000350000003501
:1019100000010034000000340000003400010033F6
:1019200000000033000000330001003200000032EC
:1019300000000032000100310000003100000031E1
:101940000001003000000030000000300001002FD6
:101950000000002F0000002F0000002F0001002ECB
:101960000000002E0000002E0001002D0000002DC0
:101970000000002D0000002D0001002C0000002CB4
:101980000000002C0000002C0001002B0000002BA8
:101990000000002B0000002B0001002A0000002A9C
:1019A0000000002A0000002A000100290000002990
:1019B0000000002900000029000000290001002883
:1019C0000000002800000028000000280000002877
:1019D000000100270000002700000027000000276A
:1019E000000000270001002600000026000000265D
:1019F0000000002600000026000100250000002550
:101A00000000002500000025000000250000002542
:101A10000001002400000024000000240000002435
:101A20000000002400010023000000230000002328
:101A3000000000230000002300000023000000231A
:101A4000000100220000002200000022000000220D
:101A500000000022000000220001002100000021FF
:101A600000000021000000210000002100000021F2
:101A700000000021000100200000002000000020E4
:101A800000000020000000200000002000000020D6
:101A9000000000200001001F0000001F0000001FC8
:101AA0000000001F0000001F0000001F0000001FBA
:101AB0000001001E0000001E0000001E0000001EAD
:101AC000000000043700001E290000511B000058D0
:101AD00010000010090000CC040000780200004152
:101AE00001000020436F756E7420583A004D696301
:101AF000726F737465707320756E617661696C6165
:101B0000626C650A002045303A00205A3A0020599C
:101B10003A0020583A004D53317C327C33205069D2
:101B20006E73000042656400453100626564002CFC
:101B30002073797374656D2073746F7070656421A0
:101B4000204865617465725F49443A2000486561C8
:101B500074696E67204661696C65640048656174EC
:101B6000696E67206661696C6564004572723A202F
:101B70004D415854454D50004D415854454D50200D
:101B8000747269676765726564004572723A204DC8
:101B9000494E54454D50004D494E54454D502074CA
:101BA000726967676572656400202F002042403AC1
:101BB0000020403A006D61726C696E66772E6F721C
:101BC00067006D61726C696E66772E6F7267006D6B
:101BD00061726C696E66772E6F726700322E302EDE
:101BE0003800322E302E3800322E302E38006D6103
:101BF000726C696E66772E6F7267006D61726C69C8
:101C00006E66772E6F7267006D61726C696E6677B3
:101C10002E6F72670020322E302E38002020506C3C
:101C2000616E6E657242756666657242797465733F
:101C30003A20002046726565204D656D6F72793AD5
:101C40002000436F6D70696C65643A204D617920A6
:101C5000203120323032310A00204C61737420551B
:101C60007064617465643A20323032312D30342D25
:101C70003239207C20417574686F723A2028546F85
:101C8000727374656E2E5061756C40676D782E644A
:101C9000652C20323032312D30352D3031290A007B
:101CA000322E302E380A004D61726C696E0020535E
:101CB0006F6674776172652052657365740A0020DF
:101CC0005761746368646F672052657365740A00B6
:101CD0002042726F776E206F757420526573657441
:101CE0000A002045787465726E616C2052657365D8
:101CF000740A00506F77657255700A0073746172D0
:101D0000740A00456E6473746F7073002553202548
:101D10006320256320256320256300205A3A002094
:101D2000593A0020583A00656E6473746F707320DE
:101D30006869743A2000434F4D4D554E4943415414
:101D4000494F4E0044525952554E004552524F523F
:101D50005300494E464F004543484F0070012C0147
:101D600090012701B0012201C0011D01F0011801FD
:101D70001002130130020E016002090190020401F9
:101D8000C002FF000003FA004003F5008003F000EA
:101D9000D003EB002004E6007004E100E004DC0066
:101DA0004005D700C005D2004006CD00D006C800CF
:101DB0008007C3003008BE00F008B900C009B400B5
:101DC000B00AAF00B00BAA00D00CA500000EA00016
:101DD000500F9B00C01096005012910000148C0010
:101DE000C0158700B0178200B0197D00D01B7800A5
:101DF000001E730040206E0090226900F0246400F1
:101E000040275F0090295A00E02B5500102E50000B
:101E100020304B0010324600E033410090353C004A
:101E20001037370070383200A0392D00B03A280042
:101E3000A03B2300603C1E00103D1900903D1400A3
:101E4000103E0F00703E0A00C03E0500003F00003B
:101E5000403FFBFF803FF6FFC03FF1FF00000A0B51
:101E600002090C0D0E080703040100000000000029
:101E70000000000000000000000000000000000062
:101E8000000000000000000012111000000000001F
:101E90000000000000000000000000000000000042
:101EA0000000000000000000000000000000000032
:101EB0000000004D6F76652025736D6D004D6F76C7
:101EC0006520302E316D6D004D6F766520316D6D62
:101ED000004D6F76652031306D6D004D6F76652059
:101EE00041786973004578747275646572004D6F4E
:101EF0007665205A004D6F76652059004D6F7665E6
:101F00002058006F6B00496E76616C6964206578BB
:101F10007472756465720A00486F6D6520257325BB
:101F2000732573204669727374004F666673657417
:101F300073204170706C696564004572723A205478
:101F40006F6F206661722100546F6F20666172208E
:101F500066726F6D207265666572656E636520706E
:101F60006F696E740A0000000000000000000000AD
:101F7000000064697300656E0043290A0061626CA9
:101F8000656420286D696E2074656D702000436F54
:101F90006C64206578747275646573206172652065
:101FA0000020643A0020693A0020703A00496E76B9
:101FB000616C69642065787472756465720A0020CA
:101FC000466C6F773A200046523A004F4646004F23
:101FD0004E0020580020204D61783A20002000203B
:101FE000204D696E3A2000536F667420656E6473ED
:101FF000746F70733A20004D3230362058003F4ADB
:10200000206F7574206F662072616E6765202830BE
:102010002E303120746F20302E33290A00205400D6
:10202000205200416363656C65726174696F6E3A3A
:102030002050004D31343520533C696E6465783E44
:10204000206F7574206F662072616E67652028307E
:102050002D31290A002F2F004D4541545041434B4B
:1020600000434F4F4C45525F54454D5045524154EB
:10207000555245004348414D4245525F54454D50ED
:1020800045524154555245004241425953544550DE
:1020900050494E470041524353004D4F54494F4E13
:1020A0005F4D4F44455300544845524D414C5F509D
:1020B000524F54454354494F4E004C4F4E475F4694
:1020C000494C454E414D45004155544F5245504FA6
:1020D00052545F53445F5354415455530053445F2B
:1020E00057524954450052455045415400534443CA
:1020F0004152440050524F4D50545F535550504F31
:10210000525400454D455247454E43595F50415248
:1021100053455200434153455F4C494748545F4241
:1021200052494748544E45535300544F47474C4536
:102130005F4C494748545300534F4654574152450A
:102140005F504F574552004255494C445F504552ED
:1021500043454E54004C4556454C494E475F44411B
:102160005441005A5F50524F42450052554E4F5510
:1021700054004155544F4C4556454C005052494E21
:10218000545F4A4F420050524F475245535300410B
:1021900055544F5245504F52545F54454D50005680
:1021A0004F4C554D455452494300454550524F4DB3
:1021B0000042494E4152595F46494C455F54524195
:1021C0004E534645520053455249414C5F584F4E7D
:1021D0005F584F4646004649524D574152455F4E63
:1021E000414D453A4D61726C696E20322E302E3869
:1021F00020284D6179202031203230323120323098
:102200003A30383A31382920534F555243455F43CD
:102210004F44455F55524C3A6769746875622E6346
:102220006F6D2F4D61726C696E4669726D77617268
:10223000652F4D61726C696E2050524F544F434F61
:102240004C5F56455253494F4E3A312E30204D4146
:102250004348494E455F545950453A507275736131
:102260002069332045585452554445525F434F55D9
:102270004E543A3120555549443A366630636635F6
:1022800031392D366232302D346131612D3830379D
:10229000632D3731623632623164336139610A004D
:1022A0005072757361206933204F46462E002057C7
:1022B0003A0042656420436F6F6C696E672E2E2E64
:1022C000004265642048656174696E672E2E2E0099
:1022D0004D3131332053004D313132205368757404
:1022E000646F776E006F666600571D521D4B1D446C
:1022F0001D361D44454255473A006F6B0020573A42
:1023000000436F6F6C696E672E2E2E0048656174F6
:10231000696E672E2E2E0045202553002569730017
:1023200025696D20256973002569682025696D2060
:1023300025697300256964202569682025696D2059
:10234000256973002569792025696420256968203D
:1023500025696D20256973005072696E7420746957
:102360006D653A20004E6F204D6F76652E00436CF0
:1023700069636B20746F20526573756D652E2E2E08
:1023800000536C6565702E2E2E0047322F47332088
:1023900062616420706172616D65746572730A00B8
:1023A00020746F6F206C6F6E672065787472757320
:1023B000696F6E2070726576656E7465640A0020C0
:1023C000636F6C6420657874727573696F6E2070CA
:1023D000726576656E7465640A00486F6D696E6734
:1023E000204661696C656400FFFFFF220A00556E9C
:1023F0006B6E6F776E20636F6D6D616E643A202235
:102400000050727573612069332052656164792EC2
:10241000005072696E74696E672E2E2E00507269BC
:102420006E74205061757365640020453A00205A2F
:102430003A0020593A00583A00204500205A00201E
:102440005900204D3932205800DB0FC93F45BCDA16
:102450003F8FB30240FCF0274056946140FE4B9BF7
:102460004084A5D840E0231841346A5641E8599782
:102470004164DBD5416E271742B4B75542CE1A9757
:1024800042C8AED542B5885A43D40684BFA65FA7DA
:10249000BF7443E0BF10B11AC01C2C58C0E8F697B7
:1024A000C0B849D6C04E4E17C124D355C180249719
:1024B000C1A0B5D5C1121A17C244AE55C27817973C
:1024C000C26CACD5C267885AC320746F6F206C6F22
:1024D0006E6720657874727573696F6E20707265AF
:1024E00076656E7465640A0020636F6C642065789D
:1024F00074727573696F6E2070726576656E74653F
:10250000640A00526573656E643A2000544845526F
:102510004D414C2052554E41574159005468657207
:102520006D616C2052756E61776179000000220048
:10253000250028002B002E0031003400020100008D
:10254000050108010B0100002100240027002A00DA
:102550002D003000330001010000040107010A01D1
:1025600005050505070508080808020202020A0A0F
:10257000080804040404010101010101010103032D
:10258000030303030303040707070C0C0C0C0C0CD8
:102590000C0C0202020206060606060606060B0BD5
:1025A0000B0B0B0B0B0B07070A0A0A0A0A0A050595
:1025B0000504040408080102102020080810204027
:1025C00010204080020102010804020101020408F7
:1025D0001020408080402010080402018004020185
:1025E00080402010080402010804020101020408CE
:1025F00010204080010204081020408010080408C8
:1026000080102040044080102040048030A4112419
:102610001FBECFEFD1E2DEBFCDBF00E00CBF12E0A6
:10262000A0E0B2E0EAE2F6E601E00BBF02C00790EC
:102630000D92A23BB107D9F72DE0A2EBB2E001C0A9
:102640001D92AD34B207E1F713E1C7E0D3E100E03A
:1026500006C021970109802FFE010E94F3AFC6300A
:10266000D10780E00807A9F70E946C9F0C9413B370
:102670000C940000AF92BF92CF92DF92EF92FF9244
:102680000F931F93CF93DF936C017B018B01040F9A
:10269000151FEB015E01AE18BF08C017D10759F036
:1026A0006991D601ED91FC910190F081E02DC60178
:1026B0001995892B79F7C501DF91CF911F910F9162
:1026C000FF90EF90DF90CF90BF90AF900895DC0126
:1026D000ED91FC910684F785E02D41E0199581E0AC
:1026E00090E00895DC01ED91FC910684F785E02DE2
:1026F00040E0199461E0F6DF8BE39FE10197F1F789
:10270000089508950895089590E080E008958F92C7
:102710009F92AF92BF92CF92DF92EF92FF920F9370
:102720001F93CF93DF93B0E4A0E06A2F70E0AB017A
:102730004B0F511D55954795411119C0EEE5FDE12F
:1027400065917491072E000C880B990B0E944EA97D
:10275000DF91CF911F910F91FF90EF90DF90CF907D
:10276000BF90AF909F908F900895B42FE0CFA417A3
:1027700011F0B41303C0EAE5FEE1E2CF9A01215063
:102780003109220F331F220F331FF901E45AF24E91
:10279000E590F490F901E05AF24EC591D4918E156E
:1027A0009F051CF3A42FC817D9070CF4BECFF9015D
:1027B000E25AF24E05911491F901EE59F24EC5908C
:1027C000D490BC016E197F09072E000C880B990B61
:1027D0000E944EA94B015C01B601601B710B072ED4
:1027E000000C880B990B0E944EA99B01AC01C501FE
:1027F000B4010E94ADA94B015C01BE016E197F09B5
:10280000072E000C880B990B0E944EA99B01AC016E
:10281000C501B4010E94F6B06B017C01B801110F33
:10282000880B990B0E944EA99B01AC01C701B60110
:102830000E941AB08DCFCF93DF93C3E2DBE120E09B
:1028400030E048E452E46091BC0C7091BD0C809182
:10285000BE0C9091BF0C0E9441B287FF17C080E070
:10286000FE01C4912091020190E0B0E0A0E004C01C
:10287000B695A79597958795CA95D2F780FD14C010
:10288000287020930001DF91CF910895FE012491DB
:1028900081E090E0A0E0B0E004C0880F991FAA1F7B
:1028A000BB1F2A95D2F7DCCF2095EACF00000000AD
:1028B000000000008091F50380FF38C080910B017B
:1028C0008270809309018FEF80934C038091F50310
:1028D000869580FF33C080910B0181708093090140
:1028E0008FEF80934D038091F5038695869580FF49
:1028F0002DC080910B018470809309018FEF80932C
:102900004E038091F50386958695869580FF26C0B7
:1029100080910B0180958074809309018FEF8093E3
:102920004F030000000000000000089580910B019B
:10293000809582708093090181E0C6CF80910B0160
:10294000809581708093090181E0CBCF80910B014C
:10295000809584708093090181E0D1CF80910B0133
:1029600080748093090181E0DACFCF92DF92EF92F9
:10297000FF928091FF05882309F457C0C090FB05A2
:10298000D090FC05E090FD05F090FE0520E030E0E1
:10299000A901C701B6010E9448A9882309F445C0CE
:1029A00020E030E040E05FE3C701B6010E94ADA93E
:1029B0009B01AC010E94ADA92BED3FE049E450E43E
:1029C0000E94ADA99B01AC0160E070E080E89FE34C
:1029D0000E94F6B06B017C01C092EB05D092EC0531
:1029E000E092ED05F092EE056091210270912202D5
:1029F000072E000C880B990B0E944EA92AE037ED98
:102A000043E25CE30E94ADA9A70196010E94ADA933
:102A100060934C0270934D0280934E0290934F024C
:102A2000FF90EF90DF90CF900895C12CD12C80E8DB
:102A3000E82E8FE3F82ED0CF1092840610923B033D
:102A400010923C0310923D0310923E031092230615
:102A50001092240610922506109226061092370333
:102A6000109238031092390310923A030895CF92CE
:102A7000DF92EF92FF92FC01C080D180E280F38070
:102A800020E030E0A901C701B6010E9448A987FFF4
:102A900068C0C701B601905820E030E040E251E440
:102AA0000E94ADA920E030E040EA50E40E941AB054
:102AB00020E030E040E251E40E94F6B00E945EB1B6
:102AC0009B0160E22031F7E23F0730F0C90160E18D
:102AD00077E20E94B0AF605D60933103283E83E0EF
:102AE000380708F445C0C90168EE73E00E94B0AF32
:102AF000CB016AE070E00E94B0AF805D809332034A
:102B000080E22436310558F0C90164E670E00E9485
:102B1000B0AFCB016AE070E00E94B0AF805D8093FF
:102B2000330380E22A30310558F0EAE0F0E0C901D1
:102B3000BF010E94B0AFCB01BF010E94B0AF805D6A
:102B400080933403C9016AE070E00E94B0AF805DF9
:102B50008093350381E393E0FF90EF90DF90CF9077
:102B6000089520E030E040E251E4C701B60198CF7B
:102B700080E2C4CF8F929F92AF92BF92CF92DF92AA
:102B8000EF92FF92FC01C080D180E280F38020E0D0
:102B900030E040E251E4C701B6010E94ADA920E057
:102BA00030E040E251E40E94ADA94B015C0120E01D
:102BB00030E0A901C701B6010E9448A920E030E039
:102BC00040EA50E487FF04C020E030E040EA50ECE7
:102BD000C501B4010E941AB020E030E040E251E4A7
:102BE0000E94F6B00E945EB19B018BE237FF05C0E8
:102BF00022273327261B370B8DE280933003C90130
:102C000068EE73E00E94C4AFCB01EAE0F0E0BF01E0
:102C10000E94C4AF805D80933103C90164E670E017
:102C20000E94C4AFCB01BF010E94C4AF805D8093FE
:102C30003203C901BF010E94C4AF282FCB01BF01DD
:102C40000E94C4AF805D809333038EE2809334038F
:102C5000205D2093350380E393E0FF90EF90DF90B9
:102C6000CF90BF90AF909F908F9008958F929F923A
:102C7000AF92BF92CF92DF92EF92FF92CF93FC017F
:102C8000C080D180E280F38020E030E040E251E477
:102C9000C701B6010E94ADA920E030E048EC52E443
:102CA0000E94ADA94B015C0120E030E040E251EC14
:102CB000C701B6010E9448A9181654F420E030E07C
:102CC00048EC52E4C701B6010E9441B287FD86C0BC
:102CD00020E030E0A901C701B6010E9448A987FFA2
:102CE0006EC060E070E080EA90ECA50194010E9463
:102CF0001AB020E030E040E251E40E94F6B00E94B9
:102D00005EB16B017C01F7FC5FC020E137E240E07F
:102D100050E00E94D7AFCA01B9012AE030E040E09C
:102D200050E00E94D7AF605D60933003C701B601E9
:102D300028EE33E040E050E00E94D7AF9AE0892EC1
:102D4000912CA12CB12CCA01B901A50194010E94BA
:102D5000D7AF605D60933103C701B60124E630E070
:102D600040E050E00E94D7AFCA01B901A50194012B
:102D70000E94D7AF605D609332038EE2809333038D
:102D8000C701B601A50194010E94D7AFC62FCA01A1
:102D9000B901A50194010E94D7AF605D609334032F
:102DA000C05DC093350380E393E0CF91FF90EF9037
:102DB000DF90CF90BF90AF909F908F90089560E08C
:102DC00070E080EA90E491CFF094E094D094C094C5
:102DD000C11CD11CE11CF11C6DE2A6CF20E030E04B
:102DE000A901C701B6010E9448A987FF6AC060E037
:102DF00070E080EA90ECA50194010E941AB020E0F6
:102E000030E040E251E40E94F6B00E945EB14B0116
:102E10005C0120E030E0A901C701B6010E9441B287
:102E200087FD0BC020E030E040E251E4C701B6016D
:102E30000E9448A960E287FD13C0B7FC47C0C501E6
:102E4000B40128EE33E040E050E00E94D7AFCA0161
:102E5000B9012AE030E040E050E00E94D7AF605D69
:102E600060933103C501B40124E630E040E050E056
:102E70000E94D7AF8AE0C82ED12CE12CF12CCA01D8
:102E8000B901A70196010E94D7AF605D609332033C
:102E90008EE280933303C501B401A70196010E941D
:102EA000D7AFC62FCA01B901A70196010E94D7AFBB
:102EB000605D60933403C05DC093350381E393E0AC
:102EC00074CF60E070E080EA90E495CFB094A09475
:102ED00090948094811C911CA11CB11C6DE2C0CF08
:102EE0009C0197FF26C0EE27FF27E81BF90B2D3921
:102EF0008FEF38070CF05DC08DE280933203CF0175
:102F000064E670E00E94C4AFCB012AE030E0B90172
:102F10000E94C4AF805D80933303CF01B9010E944A
:102F2000C4AFCB01B9010E94C4AF805D809334036C
:102F30002AC0283E83E03807B4F1C90168EE73E087
:102F40000E94C4AFCB01EAE0F0E0BF010E94C4AF31
:102F5000805D80933203C90164E670E00E94C4AFD3
:102F6000CB01BF010E94C4AF805D80933303C901D0
:102F7000BF010E94C4AFCB01BF010E94C4AF805DFE
:102F800080933403F901CF016AE070E00E94C4AF7E
:102F9000805D8093350382E393E008958DE237FDF1
:102FA000C5CF80E2C3CFF90180E2243631050CF0B1
:102FB000A4CF80E28093320380933303EA30F1059B
:102FC0006CF38DE237FF80E280933303CF016AE038
:102FD00070E00E94C4AF605D60933403D4CF9C0165
:102FE000EAE0F0E0BF010E94C4AF805D809335034A
:102FF0002A303105CCF0CB01BF010E94C4AF805D07
:10300000809334032436310594F0C90164E670E0FE
:103010000E94C4AFCB01BF010E94C4AF805D80930A
:10302000330383E393E0089585E393E0089584E315
:1030300093E008959C0197FD2DC080E22436310570
:103040005CF0C90164E670E00E94C4AFCB016AE0A5
:1030500070E00E94C4AF805D8093330380E22A3029
:1030600031055CF0EAE0F0E0C901BF010E94C4AFA5
:10307000CB01BF010E94C4AF805D80933403C901BE
:103080006AE070E00E94C4AF805D8093350383E303
:1030900093E008953195219531098DE2DDCF24E645
:1030A000829FC001112481589F4F6FEF70E00E94F2
:1030B000C4AF262F81E3643609F080E280933203A7
:1030C00090E22A3040F03AE0822F632F0E9497AFBF
:1030D0000E9497AF905D90933303822F6AE00E9425
:1030E00097AF905D9093340385E28093350382E33C
:1030F00093E008956091210270912202072E000C46
:10310000880B990B0E944EA92AE037ED43E25CE35D
:103110000E94ADA92091EB053091EC054091ED05A1
:103120005091EE050E94ADA960934C0270934D0240
:1031300080934E0290934F02089580916004811114
:1031400004C0809140048093BD060895FC018491E1
:103150000895CF93DF93EC01CB01BA010E944EA9F1
:1031600029EC38EC48EC5EE30E94F6B020E030E059
:1031700040E05FE30E941AB00E9463B16883DF9170
:10318000CF9108950E944EA929EC38EC48EC5EE3FB
:103190000E94F6B020E030E040E05FE30E941AB009
:1031A0000E9463B1862F7BCFE091600486E0E80245
:1031B000F0011124E95EF94F8091400490E095837D
:1031C00084830895CF93DF9300D01F92CDB7DEB7ED
:1031D0000E9463B10E944CA969837A838B839C838C
:1031E000CE01019644DC0F900F900F900F90DF916D
:1031F000CF9108958F929F92AF92BF92CF92DF921C
:10320000EF92FF92CF936B017C0120E030E0A901A7
:103210000E9448A987FDAAC06DEB77E386E095E39D
:10322000A70196010E941AB06B017C0120E030E0FA
:10323000A9010E9448A987FF9EC0C701B601905806
:1032400020E030E040E251E40E94ADA920E030E00F
:1032500040E251E40E94ADA920E030E040EA50E4B1
:103260000E941AB020E030E040E251E40E94F6B043
:103270000E945EB16B017C0180E280932F0360E2CB
:1032800080E1C81687E2D806E104F1048CF0C7019A
:10329000B60120E137E240E050E00E94D7AFCA011A
:1032A000B9012AE030E040E050E00E94D7AF605D15
:1032B0006093300360E288EEC81683E0D806E1042C
:1032C000F1048CF0C701B60128EE33E040E050E095
:1032D0000E94D7AFCA01B9012AE030E040E050E0D7
:1032E0000E94D7AF605D6093310360E284E6C81648
:1032F000D104E104F1048CF0C701B60124E630E00A
:1033000040E050E00E94D7AFCA01B9012AE030E0A6
:1033100040E050E00E94D7AF605D609332038AE0E6
:10332000882E912CA12CB12CC701B601A5019401C6
:103330000E94D7AFC62FCA01B901A50194010E940E
:10334000D7AF605D609333038EE280933403C05D3A
:10335000C09335038FE293E0CF91FF90EF90DF9021
:10336000CF90BF90AF909F908F9008956DEB77E3D3
:1033700086E095EB55CF20E030E040E251E4C70114
:10338000B60162CFCF92DF92EF92FF92CF93DF939D
:1033900000D01F92CDB7DEB76B017C0120E030E09A
:1033A000A9010E9448A987FD1AC06DEB77E386E06A
:1033B00095E3A70196010E941AB069837A838B83F3
:1033C0009C83CE01019653DB0F900F900F900F90CE
:1033D000DF91CF91FF90EF90DF90CF9008956DEB4C
:1033E00077E386E095EBE5CF8F929F92AF92BF9205
:1033F000CF92DF92EF92FF92CF936B017C0120E09E
:1034000030E0A9010E9448A987FD93C06DEB77E3E6
:1034100086E095E3A70196010E941AB06B017C013A
:1034200020E030E040E251E40E94ADA920E030E02D
:103430004AE754E40E94ADA94B015C0120E030E072
:10344000A901C701B6010E9448A920E030E040EA86
:1034500050E487FF04C020E030E040EA50ECC501B2
:10346000B4010E941AB020E030E040E251E40E9432
:10347000F6B00E945EB16B017C01C114D104E1047D
:10348000F10409F45BC0F7FE59C0F094E094D094C5
:10349000C094C11CD11CE11CF11C8DE2809330034F
:1034A000C701B60128EE33E040E050E00E94D7AFFC
:1034B0008AE0882E912CA12CB12CCA01B901A5015A
:1034C00094010E94D7AF605D609331038EE28093D8
:1034D0003203C701B60124E630E040E050E00E942C
:1034E000D7AFCA01B901A50194010E94D7AF605DB1
:1034F00060933303C701B601A50194010E94D7AFC1
:10350000C62FCA01B901A50194010E94D7AF605D21
:1035100060933403C05DC093350380E393E0CF91A3
:10352000FF90EF90DF90CF90BF90AF909F908F90E3
:1035300008956DEB77E386E095EB6CCF80E2AECF3C
:10354000CF93DF93EC01CB01BA010E944EA920E09A
:1035500030E040E251E40E94F6B0688379838A83C8
:103560009B83DF91CF9108950E944EA920E030E027
:1035700040E251E40E94F6B03DCECF93DF93EC01E0
:10358000CB01BA010E944EA92AE037ED43E25DE388
:103590000E94F6B00E9463B1688379838A839B831B
:1035A000DF91CF9108950E944EA92AE037ED43E2C2
:1035B0005DE30E94F6B006CECF93DF93EC01CB0122
:1035C000BA010E944EA92AE037ED43E25DE30E9472
:1035D000F6B0688379838A839B83DF91CF910895C6
:1035E0000E944EA92AE037ED43E25DE30E94F6B067
:1035F000C9CECF93DF93EC01CB01BA010E944EA953
:10360000688379838A839B83DF91CF9108950E9499
:103610004EA9B8CECF93DF93EC01CB01BA010E9443
:103620004EA920E030E048EC52E40E94F6B06883F6
:1036300079838A839B83DF91CF910895CF92DF9224
:10364000EF92FF92CF93DF9300D01F92CDB7DEB7FA
:103650000E944EA920E030E048EC52E40E94F6B00F
:103660006B017C0120E030E0A9010E9448A92DEB0C
:1036700037E346E055E387FF04C02DEB37E346E030
:1036800055EBC701B6010E941AB069837A838B8318
:103690009C83CE010196EADA0F900F900F900F9065
:1036A000DF91CF91FF90EF90DF90CF900895CF936F
:1036B000DF93EC01CB01BA010E944EA90E945EB1DA
:1036C00079836883DF91CF9108950E944EA90E946B
:1036D0005EB1CB01AFCCCF93DF93EC01CB01BA014C
:1036E0000E944EA920E030E04AE754E40E94F6B080
:1036F000688379838A839B83DF91CF9108950E94A9
:103700004EA920E030E04AE754E40E94F6B06CCEC7
:10371000CF93DF93EC01CB01BA010E944EA92AE0BE
:1037200037ED43E25CE30E94F6B00E9463B1688328
:1037300079838A839B83DF91CF9108950E944EA95C
:103740002AE037ED43E25CE30E94F6B03BCD809186
:10375000E40C9091E50C891B8F7039F481E0909115
:103760008406913019F080E0089581E00895FC010D
:1037700080810895FC0180E09191992329F0907C4B
:103780009038D1F38F5FF8CF0895AF92BF92CF9268
:10379000DF92EF92FF920F931F93CF93DF93EC0191
:1037A0005B018A01FB01199587FD16C0C82ED12C3B
:1037B000F12CE12C2196F801C082D182E282F382C1
:1037C000CE01DF91CF911F910F91FF90EF90DF908D
:1037D000CF90BF90AF900895982F907E903CA9F421
:1037E0008F7190E0B0E0A0E06C017D0156E0CC0C60
:1037F000DD1CEE1CFF1C5A95D1F7CE010196F50198
:1038000019958F73C82A2296D6CF982F907F903E15
:1038100011F58F7090E0B0E0A0E06C017D0136E022
:10382000CC0CDD1CEE1CFF1C3A95D1F7CE010196A5
:10383000F50119958F73C82A46E0CC0CDD1CEE1CEF
:10384000FF1C4A95D1F7CE010296F50119958F73A9
:10385000C82A2396B0CF982F987F903F79F587702C
:1038600090E0B0E0A0E06C017D0186E0CC0CDD1CB6
:10387000EE1CFF1C8A95D1F7CE010196F501199532
:103880008F73C82A96E0CC0CDD1CEE1CFF1C9A95A9
:10389000D1F7CE010296F50119958F73C82A26E05B
:1038A000CC0CDD1CEE1CFF1C2A95D1F7CE01039633
:1038B000F50119958F73C82A24967DCF982F907C97
:1038C000903841F4807C803869F42196CE01F5016E
:1038D0001995F8CF8E7F8D3F28F02196CE01F50106
:1038E0001995F8CFC12CD12C760165CFCF92DF92FC
:1038F000EF92FF920F931F93CF93DF9300D000D0EE
:103900001F921F92CDB7DEB78E010F5F1F4FD801F8
:1039100030E020E0FB01E20FF31FE491ED932F5F15
:103920003F4F28303105B1F7877098E0899FB0018B
:10393000112460648CE09DE00E94721383E790E0A4
:103940000197F1F77801E8E0EE0EF11C8BE9C82E43
:10395000D12CF80161918F018CE09DE00E946713EA
:10396000C6010197F1F7E016F10699F728960FB610
:10397000F894DEBF0FBECDBFDF91CF911F910F91A5
:10398000FF90EF90DF90CF9008956BE17DE080E0B5
:10399000ADDF63E17DE081E0A9DF6BE07DE082E007
:1039A000A5DF63E07DE086E0A1DF6BEF7CE087E0F0
:1039B0009DDF63EF7CE083E099CFCF93823061F4A9
:1039C000C4E0C15058F088E0C89FB001112464548D
:1039D000734F8C2F8BDFF5CFCF91D7CFCF91089539
:1039E0000F931F93522F20910A0D30910B0D281722
:1039F000390781F190930B0D80930A0D8B0130E014
:103A000020E000934A0410934B0420934C0430931D
:103A10004D044093440450934504855F924321F440
:103A200010922E0310922C038CE09DE00E947A13DA
:103A300081E020910A0D30910B0D255F324309F092
:103A400080E0BBDF82E080932B0281E080935A0408
:103A500010922D031F910F91089520E040E070E037
:103A600060E080EC90E2BCCF21E020932E03FC01CB
:103A700080819181A281B38180930202909303029D
:103A8000A0930402B093050220E040E070E060E003
:103A900080913E0490913F04A3CFCF93DF9300D059
:103AA0001F92CDB7DEB78DEC9CECACECBCE3898308
:103AB0009A83AB83BC83CE010196D6DF0F900F9023
:103AC0000F900F90DF91CF910895CF93DF9300D0A7
:103AD0001F92CDB7DEB78DEC9CECACECBDE38983D7
:103AE0009A83AB83BC83CE010196BEDF0F900F900B
:103AF0000F900F90DF91CF910895CF93DF9300D077
:103B00001F92CDB7DEB780E090E0A0E8BFE38983E5
:103B10009A83AB83BC83CE010196A6DF0F900F90F2
:103B20000F900F90DF91CF910895CF93DF9300D046
:103B30001F92CDB7DEB780E090E0A0E2B1E48983C8
:103B40009A83AB83BC83CE0101968EDF0F900F90DA
:103B50000F900F90DF91CF910895282F90917B06C1
:103B6000833021F495FD0FC094FD0FC0892F90E0A4
:103B7000B0E0A0E004C0B695A795979587952A95E3
:103B8000D2F78170089581E0089580E0089581E082
:103B90000895CF92DF92EF92FF920F931F93CF93EE
:103BA000DF9300D000D0CDB7DEB78A0146E0469F54
:103BB0009001479F300D1124BC01620F731F46E036
:103BC00050E0CE0101960E948EA8C980DA80EB8079
:103BD000FC80F80140815181628173818FEF9FEFFA
:103BE000C416D506E606F70640F081E090E04C15D5
:103BF0005D056E057F0508F080E026960FB6F89407
:103C0000DEBF0FBECDBFDF91CF911F910F91FF900F
:103C1000EF90DF90CF900895CF93DF93C09113067C
:103C2000D0911406209729F160910F06709110062B
:103C300080911106909112060E945EB16E5F7F4FD7
:103C400024976C177D07ACF47093E0036093DF0357
:103C50000E948082605A75418F4F9F4F6093E103AD
:103C60007093E2038093E3039093E403DF91CF9199
:103C700008951092E1031092E2031092E303109270
:103C8000E403F4CF0F931F930E9480820091EE0310
:103C90001091EF032091F0033091F103011511050C
:103CA0002105310509F040C02091F80C2223C9F10B
:103CB000E091F60C21502093F80C21E02E0F209378
:103CC000F60C3091F90C231302C01092F60C24E08C
:103CD000E29FF0011124E650F34F0081118122810F
:103CE00033810093EA031093EB032093EC033093AA
:103CF000ED03600F711F811D911D6093EE037093A2
:103D0000EF038093F0039093F1038091EC03909183
:103D1000ED03892B31F080910201809584708093AE
:103D200000011F910F910895601B710B820B930B83
:103D300097FDF7CF8091020184708093000110926B
:103D4000EE031092EF031092F0031092F103E9CF0B
:103D50000F931F930E9480820091F8021091F90244
:103D60002091FA023091FB02601B710B820B930BC6
:103D700097FD10C0809103018695817091E089279D
:103D80009091030192FF82609091000196FF846000
:103D90008093F7028091F70281709091F70291FD74
:103DA00082609091F602981749F0813009F148F04D
:103DB000823079F0833091F08093F6021F910F9159
:103DC0000895913079F09230B9F79091F5029F5FA4
:103DD0000CC0992339F09330C1F3EECF9130A9F3A1
:103DE000923051F79091F50291509093F502E4CF03
:103DF000992359F3933001F7F5CFCF92DF92EF92E9
:103E0000FF92CF93C82F0E9480826B017C0124EA2D
:103E100030E74DE75FE36091020270910302809109
:103E20000402909105020E9448A987FD18C08AEFFC
:103E300090E0A0E0B0E08C0D9D1DAE1DBF1D8093F5
:103E4000E5029093E602A093E702B093E802C093E4
:103E50000002CF91FF90EF90DF90CF90089580E027
:103E600090E0DC01E8CF0F931F93CF93DF93EC0139
:103E7000423018F08C8188608C834F8368872223BE
:103E800029F0413019F48C8184608C8364E670E001
:103E900080E090E00E944D826C8164FD57C0E88113
:103EA000F9810684F785E02D42E063E0CE011995A3
:103EB0008BE496E40197F1F7E881F9810684F785B0
:103EC000E02D42E063E0CE01199503E512E0C80160
:103ED0000197F1F7E881F9810684F785E02D42E04A
:103EE00063E0CE011995C8010197F1F7E881F981E6
:103EF0000684F785E02D42E062E0CE011995C80105
:103F00000197F1F76C816062CE010E9472138BEE13
:103F100090E00197F1F784E08D836CE0CE010E9480
:103F20007213CE010E947A1382E08E8366E0CE0186
:103F30000E947213E881F9810484F585E02D6FEF0A
:103F4000CE01DF91CF911F910F9119946062CE0144
:103F50000E9472138BE496E40197F1F76C81606222
:103F6000CE010E94721303E512E0C8010197F1F738
:103F70006C816062CE010E947213C1CF20E044E0E8
:103F800064E18CE09DE06FDF81E020910A0D3091CB
:103F90000B0D255F324309F080E00FDD8CE09DE0E2
:103FA0000C947A13CF93DF93E9DFE4E0F1E08081B2
:103FB0008D7F8083C5E0D1E0888180958270A3E009
:103FC000B1E08C9380818B7F808388818095847021
:103FD0008C93E1E0F1E080818F7B8083809102010E
:103FE0008095807480930001B3DE1092F502DF911A
:103FF000CF910895CF93DF93C8EBDCE08A819B815A
:104000000E94427A6C837D838E839F83CBE0D6E0CF
:104010008A819B810E9487136C837D838E839F831B
:10402000A8951092E503DF91CF9108950E94E3B225
:10403000BF92CF92DF92EF92FF920F931F93CF9395
:10404000DF938C01B42E6C018EE0C80ED11CD0E041
:10405000C0E0E62EF12CB7010C2E02C075956795D5
:104060000A94E2F76170F60181916F010E94ED8080
:104070002196CB1580F361E0F80185850E94ED80E3
:1040800060E0F8018585DF91CF911F910F91FF903E
:10409000EF90DF90CF90BF900C94ED80FC0186896B
:1040A0008F3F71F021853285662329F0232B31F46F
:1040B00061E00C94ED8021303105D1F360E0F9CF5F
:1040C00008950F931F93CF93DF93EC01162F042FC6
:1040D00061E0413009F060E08B850E94ED808C85C5
:1040E0008F3F19F060E00E94ED80023071F08C810A
:1040F00048E084FD0BC0612F70E084E07595679502
:104100008A95E1F744E0CE0193DF44E0612FCE01D0
:10411000DF91CF911F910F918BCFEF92FF921F9361
:10412000CF93DF93EC01162F7A01862F0E941C7A21
:104130001E8BFA86E986E881F9810484F585E02DF5
:1041400060E0CE01DF91CF911F91FF90EF90199425
:104150000C948C820C948C826FEF809140040C94B0
:10416000A3806FEF78E382E00C941E9D63E079E317
:1041700081E00C941E9D67E079E380E00C941E9D25
:1041800061EB76E383E00C941E9D0F931F93CF9316
:10419000DF93CDB7DEB72E970FB6F894DEBF0FBE14
:1041A000CDBF8A011E861D866F83788789879A878F
:1041B0002FEF2B87603871058105910538F48CE06D
:1041C0009DE00E94671381E090E02FC09E01235F75
:1041D0003F4FAE01495F5F4F69EB70E086E698E0C4
:1041E0000E94C87997FD2CC08D859E8526E0289F6A
:1041F000B001299F700D11246A59774F46E050E0B5
:10420000CE0101960E948EA86D818CE09DE00E94F7
:10421000671301301105B9F26E816623A1F28CE0BB
:104220009DE00E94671382E090E02E960FB6F8940E
:10423000DEBF0FBECDBFDF91CF911F910F910895CB
:104240009E01235F3F4FAE01495F5F4F63E670E021
:1042500084E196E00E94C87997FD0BC08D859E850C
:1042600026E0289FB001299F700D11246C5E794FC4
:10427000C5CF6FE3A4CF4F925F926F927F928F92E0
:104280009F92AF92BF92CF92DF92EF92FF920F93E5
:104290001F93CF9310922E0610922D062FE320939A
:1042A0007E0610927D0610927C06109227061092D0
:1042B00028061092290610922A069C01F901908185
:1042C0002F5F3F4F9032D1F39E34C9F4818190ED3E
:1042D000980F9A3020F08D3211F08B3281F43296A3
:1042E0009F012F5F3F4F808180538A3008F473C055
:1042F0009F012F5F3F4F8081803209F46EC0F093A1
:104300008306E09382068F010F5F1F4FC0816AE230
:1043100070E0C8010E94E7B2009731F0FC013197CC
:1043200080818032E1F31182CD3429F0C43519F057
:10433000C73409F040C0F80180810F5F1F4F803201
:10434000D1F380538A30B8F5C0937E0610927D0673
:1043500010927C066AE09F012F5F3F4F40917C06E0
:1043600050917D06649FC001659F900D1124C097F8
:104370004081840F911D47FD9A9590937D0680930F
:104380007C06F901208120532A3028F3DF01319681
:104390002C912032D9F3CD3461F58E31910539F06D
:1043A000F0F48731910519F08C31910511F5B09336
:1043B0002E06A0932D06CF911F910F91FF90EF90A5
:1043C000DF90CF90BF90AF909F908F907F906F9035
:1043D0005F904F900895F90183CFF90189CF853718
:1043E000910538F08737910510F3803A23E0920762
:1043F000F1F210922E0610922D0650918206C12CD9
:10440000D12C7601C394FD0131964C91442399F24D
:10441000413299F4CD3489F48032910571F4F093EE
:104420002E06E0932D0663E270E0CF010E94E7B212
:10443000009709F2FC011082BECF41544A3108F0C6
:104440007DC0DF012D91203209F460C030ED320FC4
:104450003A3008F46CC02E3209F05AC02181205342
:104460002A3008F464C020912D0630912E062115C3
:10447000310509F05EC0BF016150710970932E06CD
:1044800060932D06A42FB0E02601370104C0440C30
:10449000551C661C771C4A95D2F780902706909091
:1044A0002806A0902906B0902A0684289528A628D8
:1044B000B7288092270690922806A0922906B092EB
:1044C0002A0621153105C1F1251BAA53BD4F2C9396
:1044D00020812154DF012A3108F495CFDF01219199
:1044E000222309F490CF30ED320F3A30B8F333ED98
:1044F000320F323098F32B3289F39D012F5F3F4FFB
:104500004C91403209F07FCFD901F7CFFD0199CF0F
:104510002D3219F02B3209F0A6CF218130ED320F68
:104520003A3028F02E3209F09ECF228198CF9F0199
:10453000A9CF30E020E0A6CF20E0C7CF20912D0604
:1045400030912E06232B21F6B0932E06A0932D0634
:10455000BFCF0F930FB70F9300916E000B7F0093A7
:104560006E0078940F930BB70F930CB70F921F92B6
:104570002F933F934F935F936F937F938F939F936B
:10458000AF93BF93EF93FF9311240E94C553FF9104
:10459000EF91BF91AF919F918F917F916F915F91BB
:1045A0004F913F912F911F900F900CBF0F910BBF18
:1045B0000F910460F89400936E000F910FBF0F915C
:1045C0001895CF93DF9310921606C8EBDCE019869E
:1045D00018860E948C821A867598CBE0D6E01986E0
:1045E00018861ADB1A86A598DF91CF910895DB0112
:1045F000833070F494E0899FF0011124EB54FC4F58
:10460000AB01770F660B770B408351836283738313
:104610009091F403992371F1813091F018F0823078
:10462000E1F008952FEF30E00E940DB020ED37E06B
:1046300040E050E00E94D7AFB9018EE20C9479813E
:104640002FEF30E00E940DB020ED37E040E050E069
:104650000E94D7AFB9018DE2F1CF2FEF30E00E9479
:104660000DB020ED37E040E050E00E94D7AFB90137
:104670008CE2E4CF08958091F403882391F0609157
:10468000B5037091B60380E0B2DF6091B903709119
:10469000BA0381E0ACDF6091BD037091BE0382E09C
:1046A000A6CF0895BC0120919603309197034091C5
:1046B0009603509197032417350731F481E02617AC
:1046C000370709F080E008959A01F1CF0F930FB7F3
:1046D0000F9300916E000F930B7F00936E0000917B
:1046E0006F000D7F00936F000F930BB70F930CB704
:1046F0000F921F922F933F934F935F936F937F93EC
:104700008F939F93AF93BF93EF93FF93112482D323
:10471000FF91EF91BF91AF919F918F917F916F9199
:104720005F914F913F912F911F900F900CBF0F9170
:104730000BBF0F910260F89400936F000F910093EC
:104740006E000F910FBF0F911895843021E09207F2
:1047500014F084E091E09093C10C8093C00C0C9411
:104760008C82CF93DF938091EA05811119C0C091AB
:104770001F02D0912002219720E030E040E05FE36B
:104780006091BC0C7091BD0C8091BE0C9091BF0CDF
:104790000E941AB00E945EB121E06C177D070CF0F8
:1047A00020E0822FDF91CF910895DBDF882339F05D
:1047B00020E040E070E060E080E891E311C94DC97D
:1047C000AF92BF92CF92DF92EF92FF920F931F931F
:1047D000CF93DF93C1E8DBE005EA16E081E9A82E7C
:1047E0008BE0B82EC12CD12C7601C39469917991BC
:1047F000899199910E944CA9288939894A895B89B4
:104800000E94ADA90E9463B1F801619371938193F5
:1048100091938F01C616D706E806F90610F46B01CE
:104820007C01AC16BD0611F76FEF7FEFCB01A7013E
:1048300096010E945CAF2093B5063093B606409374
:10484000B7065093B806DF91CF911F910F91FF905B
:10485000EF90DF90CF90BF90AF900895B1CFB0CFE1
:10486000AFCFAECF4F925F926F927F928F929F9217
:10487000AF92BF92CF92DF92EF92FF920F931F936E
:10488000CF93DF93CDB7DEB76A970FB6F894DEBF4C
:104890000FBECDBF9A8F898F5B018A01DC01D6964E
:1048A0006D917D918D919C91D9970E944CA96B013E
:1048B0007C01F50120813181428153810E94ADA9A3
:1048C0000E94E0B02B013C01D8012D913D914D910A
:1048D0005C91C701B6010E94ADA90E94E0B04B01F6
:1048E0005C01C301B2010E9463B1698B7A8B8B8B2F
:1048F0009C8B683771058105910540F428E730E00D
:1049000040E050E0298B3A8B4B8B5C8BC501B401A6
:104910000E9463B16D877E878F87988B683771059A
:104920008105910540F488E790E0A0E0B0E08D8734
:104930009E87AF87B88BE98DFA8DEE5BFF4F2081A4
:1049400031814281538129833A834B835C83CA013D
:10495000B9010E944EA92B013C0169897A898B8992
:104960009C890E944CA969877A878B879C8720E065
:1049700030E0A901C301B2010E9448A9882309F4CB
:104980003BC1A7019601C701B6010E94ADA94B0129
:104990005C0129853A854B855C85CA01B9010E9475
:1049A000ADA99B01AC01C501B4010E9419B04B0136
:1049B0005C01A3019201C301B2010E941AB09B01E4
:1049C000AC01C501B4010E94F6B00E94E0B00E94A3
:1049D00063B16D837E838F83988769817A818B81B0
:1049E0009C8190958095709561957F4F8F4F9F4FDB
:1049F0000E944EA94B015C016D857E858F8598894B
:104A00000E944CA969837A838B839C8320E030E0E9
:104A1000A901C501B4010E9448A9882309F4F0C086
:104A200029813A814B815C81CA01B9010E94ADA9FB
:104A30006D8B7E8B8F8B988FA7019601C701B60176
:104A40000E94ADA99B01AC016D897E898F89988DEB
:104A50000E9419B06B017C01A5019401C501B4014C
:104A60000E941AB09B01AC01C701B6010E94F6B0CA
:104A70000E948FB1A98DBA8D95968D909D90AD9025
:104A8000BC909897750164012D813E814F815885B6
:104A9000C21AD30AE40AF50A0E9463B1C61AD70AF9
:104AA000E80AF90AF7FE6EC020E030E0A901C30170
:104AB000B2010E9448A9882309F4A6C0C501B40127
:104AC0000E944CA96B017C01A3019201C301B201B8
:104AD0000E941AB09B01AC01C701B6010E94ADA9AA
:104AE0006B017C0129853A854B855C85CA01B9013A
:104AF0000E94ADA99B01AC01C701B6010E9419B08B
:104B00006B017C0129813A814B815C81CA01B90129
:104B10000E94ADA99B01AC01C701B6010E941AB069
:104B20006B017C0120E030E040E850E4C301B201B9
:104B30000E94ADA99B01AC01C701B6010E94F6B06D
:104B40000E94E0B06B017C0120E030E0A9010E94EE
:104B500041B218161CF0C12CD12C7601C701B60148
:104B60000E9463B16D837E838F8398878616970634
:104B7000A806B90620F48D829E82AF82B886C12C29
:104B8000D12C76018D819E81AF81B885E98DFA8D1A
:104B900081A792A7A3A7B4A7C80ED91EEA1EFB1E21
:104BA000C5A6D6A6E7A6F0AA29893A894B895C89C9
:104BB00022AF33AF44AF55AFFE962D853E854F856E
:104BC000588920833183428353836A960FB6F894C1
:104BD000DEBF0FBECDBFDF91CF911F910F91FF9030
:104BE000EF90DF90CF90BF90AF909F908F907F908D
:104BF0006F905F904F90089560E070E0CB01E5CE3C
:104C000060E070E0CB0134CF60E070E0CB0198CF82
:104C100090916F0081E091FD02C080E00895909135
:104C20006F009D7F90936F000895EFE6F0E0808124
:104C3000826080830895CF93C82FEADF94E0C99FF4
:104C400090011124F901E756FC4F2B553C4FD90137
:104C50004D915D916D917C9140835183628373830B
:104C600091E090939803882311F0CF91DECFCF91FC
:104C70000895CF92DF92EF92FF9280913F031E9BA7
:104C80005DC0816080933F0380913F031D9B58C0AE
:104C9000826080933F0380913F031C9B53C08460DC
:104CA00080933F03C0908903C0FE0FC08091F5033D
:104CB00080FF0BC080913F0380FF07C0809180067A
:104CC00081608093800680E0B6DFD12CF12CE12C4E
:104CD000D701C601B695A7959795879580FF10C017
:104CE0008091F503869580FF0BC080913F0381FF83
:104CF00007C08091800682608093800681E09BDF00
:104D000082E0F694E794D794C7948A95D1F7C0FED1
:104D10001BC08091F5038695869580FF15C0809114
:104D20003F0382FF11C080918006846080938006DB
:104D300082E0FF90EF90DF90CF907DCF8E7FA2CF6B
:104D40008D7FA7CF8B7FACCFFF90EF90DF90CF9080
:104D500008955EDF1092B9061092BA061092BB0653
:104D60001092BC06811161CF08950F931F9380911B
:104D7000E40C9091E50C891B8F7009F449C0909167
:104D8000E10C992361F0833040F48FEF890F29F013
:104D90008093E10C90E080E038C01092E10C8091AB
:104DA000E50C2BE4829FC00111248053994FFC0134
:104DB000208120FDEFCF4091B9065091BA06609155
:104DC000BB067091BC06E95BFF4F00811181228117
:104DD0003381401B510B620B730B4093B906509308
:104DE000BA066093BB067093BC062091E50C2F5F5A
:104DF0002F702093E20C3091E50C2091E30C3213DC
:104E000004C02091E20C2093E30C1F910F910895B0
:104E1000A0DFC0CF2F923F924F925F926F927F920E
:104E20008F929F92AF92BF92CF92DF92EF92FF92BA
:104E30000F931F93CF93DF9300D0CDB7DEB78FEFE3
:104E40009FEF90938900809388000AE00983312CBA
:104E5000212C78948091920390919303A0919403D4
:104E6000B0919503892B8A2B8B2B09F0C2C18091BD
:104E700098038823D1F08091960390919703109224
:104E80009803892B91F01092970310929603109239
:104E900089039091E40C8091E50C981731F0809192
:104EA000E50C8F5F8F708093E50C80919603909155
:104EB0009703892B09F49DC140918E0350918F0374
:104EC000609190037091910380918A0390918B037C
:104ED000A0918C03B0918D0300917C0310E030E031
:104EE00020E0841B950BA60BB70B081719072A07A0
:104EF0003B0710F4D901C8018A83840F951FA61FB0
:104F0000B71F80938E0390938F03A0939003B09369
:104F10009103E1E0C0905403D0905503E090560314
:104F2000F09057038091640390916503A09166030C
:104F3000B0916703C80ED91EEA1EFB1EC09264031F
:104F4000D0926503E0926603F0926703F7FC33C0EA
:104F500080914C03082E000C990BAA0BBB0B4091BF
:104F6000A5035091A6036091A7037091A803840F35
:104F7000951FA61FB71F8093A5039093A603A09328
:104F8000A703B093A8038091500390915103A0917F
:104F90005203B0915303A7019601281B390B4A0B0A
:104FA0005B0BDA01C9018093640390936503A093BE
:104FB0006603B09367030091580310915903209141
:104FC0005A0330915B038091680390916903A0912B
:104FD0006A03B0916B03080F191F2A1F3B1F009330
:104FE00068031093690320936A0330936B0337FDC2
:104FF00033C080914D03082E000C990BAA0BBB0BFC
:105000004091A9035091AA036091AB037091AC0346
:10501000840F951FA61FB71F8093A9039093AA031F
:10502000A093AB03B093AC038091500390915103D4
:10503000A0915203B0915303B901A801481B590B29
:105040006A0B7B0BDB01CA018093680390936903B1
:10505000A0936A03B0936B0340915C0350915D038E
:1050600060915E0370915F0380916C0390916D037A
:10507000A0916E03B0916F03480F591F6A1F7B1FE9
:1050800040936C0350936D0360936E0370936F03B2
:1050900077FD33C080914E03082E000C990BAA0BAC
:1050A000BB0B8090AD039090AE03A090AF03B09087
:1050B000B003880D991DAA1DBB1D8093AD0390936D
:1050C000AE03A093AF03B093B003809150039091CF
:1050D0005103A0915203B09153032A013B01481A96
:1050E000590A6A0A7B0AD301C20180936C03909328
:1050F0006D03A0936E03B0936F0380906003909054
:105100006103A0906203B09063038091700390915B
:105110007103A0917203B0917303880D991DAA1DAC
:10512000BB1D8093700390937103A0937203B0939F
:105130007303B7FD33C040904F03042C000C550897
:10514000660877088090B1039090B203A090B303F3
:10515000B090B403840C951CA61CB71C8092B103BC
:105160009092B203A092B303B092B4038090500324
:1051700090905103A0905203B09053032C013D0135
:10518000481859086A087B0853014201809270034D
:1051900090927103A0927203B0927303E11104C064
:1051A000E0918400F0918500F7FE409A37FF419A24
:1051B00077FF429AB7FF439AE0918400F09185000F
:1051C000E0918400F0918500F7FE409837FF419808
:1051D00077FF4298B7FF43985A80552021F080917D
:1051E0008400909185000A8101500A83E0E001115A
:1051F00091CE8091920390919303A0919403B091EA
:105200009503892B8A2B8B2B09F03DC4E0919603E3
:10521000F0919703309709F4A5C480918E03909183
:105220008F03A0919003B091910340918A03509114
:105230008B0360918C0370918D0384179507A607EB
:10524000B70708F477C01092970310929603109254
:1052500089039091E40C8091E50C981709F482C4BD
:105260008091E50C8F5F8F708093E50C60EDC62E0A
:1052700067E0D62EE12CF12C809196039091970354
:10528000892B09F0F8C371DD9093970380939603FF
:10529000892B09F4F0C340909603509097035B82EA
:1052A0004A82D2018C9183FF9FC2F201858D968D37
:1052B000A78DB0A1418D528D638D748D85889688A0
:1052C000A788B08C8092A5039092A603A092A70312
:1052D000B092A8034093A9035093AA036093AB0331
:1052E0007093AC038093AD039093AE03A093AF0390
:1052F000B093B00381A192A1A3A1B4A18093B10303
:105300009093B203A093B303B093B40310929703A6
:1053100010929603109289039091E40C8091E50C11
:10532000981709F4B0CF8091E50C8F5F8F70809350
:10533000E50CA9CF409185035091860360918703C6
:1053400070918803481759076A077B0708F4DCC087
:105350008091810390918203A0918303B091840393
:1053600041A952A963A974A94424859F112D969F30
:105370009001A69F300DA59F200D311D869F100D19
:10538000211D341D959F100D211D341DA49F100D4E
:10539000211D341D949F110D241D341D1695241DAF
:1053A000341D789F200D311D799F300D112442ADA1
:1053B00053AD64AD75AD420F531F611D711D409318
:1053C0007D0350937E0360937F037093800306A94F
:1053D00017A920AD31AD041715072607370740F48C
:1053E00000937D0310937E0320937F03309380030B
:1053F00080907D0390907E03A0907F03B090800307
:1054000023EC3AE141E0F901C590D590E590F490A4
:10541000C814D904EA04FB0470F4B694A7949794D2
:105420008794440F2C5F3F4F5FED652E5AE1752E38
:105430006216730641F740937C0300E280169104E4
:10544000A104B10428F410E2812E912CA12CB12CDE
:1054500020E2821A9108A108B108811438E093066D
:10546000A104B10408F42EC044E0949E90011124DC
:105470002D53394EF901329645915491F82DEE276E
:10548000F59FB001F49F610D7E1F06946E1F7E1F75
:105490001124AB0170E060E0F901C590D490F12CCB
:1054A000E12CC41AD50AE60AF70A8C0D9D1DAE1D23
:1054B000BF1D8093810390938203A0938303B093D5
:1054C0008403DACEB501A401769567955795479583
:1054D0009A012C7F2D533D4EF901C590D490F901CE
:1054E000329645915491082D0770049F9001059FB5
:1054F000300D1124F3E036952795FA95E1F7C21A9D
:10550000D30AF12CE12CD1CF40917803509179034B
:1055100060917A0370917B03481759076A077B07EC
:1055200008F0D0C08091740390917503A091760328
:10553000B091770341A952A963A974A92227859F35
:10554000312D969F8001A69F100DA59F000D111D66
:10555000869F300D011D121F959F300D011D121FDA
:10556000A49F300D011D121F949F310D021F121FA9
:105570003695021F121F789F000D111D799F100D87
:10558000112430E020E040917D0350917E03609132
:105590007F0370918003FE9680809180A280B3800B
:1055A000041715072607370758F4401B510B620BE9
:1055B000730B84169506A606B70610F44A015B0124
:1055C00023EC3AE141E0F901C590D590E590F490E3
:1055D000C814D904EA04FB0460F4B694A794979421
:1055E0008794440F2C5F3F4F6FED7AE1621773078A
:1055F00051F740937C0370E287169104A104B10433
:1056000028F400E2802E912CA12CB12CE0E28E1A1D
:105610009108A108B1088114F8E09F06A104B10423
:1056200008F42EC004E0909E900111242D53394EB1
:10563000F901329645915491F82DEE27F59FB0016E
:10564000F49F610D7E1F06946E1F7E1F1124AB0117
:1056500070E060E0F901C590D490F12CE12CC41AFF
:10566000D50AE60AF70A8C0D9D1DAE1DBF1D80935D
:10567000740390937503A0937603B0937703FCCDE6
:10568000B501A40176956795579547959A012C7FAA
:105690002D533D4EF901C590D490F90132964591B4
:1056A0005491082D0770049F9001059F300D11241F
:1056B00013E0369527951A95E1F7C21AD30AF12C13
:1056C000E12CD1CF80910E0290910F02A091100297
:1056D000B0911102B7FF5DC0C6A8D7A8E0ACF1AC8D
:1056E00083EC9AE121E0FC0145915591659174911B
:1056F0004C155D056E057F0558F4F694E794D79434
:10570000C794220F04964FED5AE14817590759F7ED
:1057100020937C0350E2C516D104E104F10428F47F
:1057200070E2C72ED12CE12CF12C60E2C61AD10810
:10573000E108F108C11478E0D706E104F10408F4A7
:1057400031C0A4E0DA9EC00111248D53994EFC01B2
:10575000329625913491BC2D6627B39FA001B29F4C
:10576000410D561F0694461F561F112470E060E03D
:10577000FC0185919491B0E0A0E0841B950BA60BF1
:10578000B70B80930E0290930F02A0931002B09378
:105790001102C0900E02D0900F02E0901002F09023
:1057A00011026ACDD701C601B695A7959795879541
:1057B0008C7F8D539D4EFC0125913491FC013296D6
:1057C00045915491EC2DE770E49FC001E59F900D49
:1057D000112463E0969587956A95E1F7281B390BAC
:1057E000C901B0E0A0E0CDCFAA81BB8155968D90D4
:1057F0009D90AD90BC90589781E081149104A104D4
:10580000B10409F480E0EA81FB81C18CD28CE38C85
:10581000F48CC114D104E104F10409F08260AA817E
:10582000BB815D964D915D916D917C9190974115F5
:1058300051056105710509F0846080938903109218
:1058400074031092750310927603109277031092EE
:105850008103109282031092830310928403EA81E1
:10586000FB8185A196A1A7A1B0A580938A039093FF
:105870008B03A0938C03B0938D03442455243201F1
:10588000481A590A6A0A7B0A4092640350926503D7
:1058900060926603709267034092680350926903B6
:1058A00060926A0370926B0340926C0350926D0396
:1058B00060926E0370926F03409270035092710376
:1058C000609272037092730341A052A063A074A00F
:1058D000440C551C661C771C880C991CAA1CBB1C0C
:1058E0008092540390925503A0925603B0925703AE
:1058F000CC0CDD1CEE1CFF1CC0925803D092590347
:10590000E0925A03F0925B03440F551F661F771F06
:1059100040935C0350935D0360935E0370935F0359
:10592000409260035092610360926203709263033D
:10593000880F991FAA1FBB1F809350039093510398
:10594000A0935203B093530310928E0310928F03CF
:10595000109290031092910381A592A5A3A5B4A5DE
:105960008093850390938603A0938703B093880365
:1059700085A596A5A7A5B0A98093780390937903F0
:10598000A0937A03B0937B0385A99091F5038917BF
:1059900021F08093F5030E94561480913B068111FB
:1059A00068D944244A94542C320140920E025092F9
:1059B0000F026092100270921102AA81BB81DA96E6
:1059C0004D915D916D917C91DD9740937D03509356
:1059D0007E0360937F037093800383EC9AE121E060
:1059E000FC01C590D590E590F490C416D506E60666
:1059F000F70658F47695679557954795220F0496C4
:105A0000EFEDFAE1E817F90759F720937C034032EC
:105A100051056105710520F440E250E060E070E05E
:105A200040525109610971094115F8E05F076105AC
:105A3000710508F475C004E0509FC00111248D5316
:105A4000994EFC01329625913491AA27439FF0018B
:105A5000429FE10DFA1F0694EA1FFA1F1124AF01BD
:105A600070E060E0FC01C590D490F12CE12CC41AE8
:105A7000D50AE60AF70AC0929203D0929303E09205
:105A80009403F09295038091920390919303A091D7
:105A90009403B0919503AC01BD018F3F2FEF9207A6
:105AA000A105B10520F04FEF5FEF60E070E0841BCF
:105AB000950BA60BB70B8093920390939303A0933F
:105AC0009403B0939503F89480918400909185009D
:105AD0004096098101500983002309F441C0240E36
